{
  "contractName": "TaskContract",
  "abi": [
    {
      "anonymous": false,
      "inputs": [
        {
          "indexed": false,
          "internalType": "address",
          "name": "recipient",
          "type": "address"
        },
        {
          "indexed": false,
          "internalType": "uint256",
          "name": "taskId",
          "type": "uint256"
        }
      ],
      "name": "AddTask",
      "type": "event"
    },
    {
      "anonymous": false,
      "inputs": [
        {
          "indexed": false,
          "internalType": "uint256",
          "name": "taskId",
          "type": "uint256"
        },
        {
          "indexed": false,
          "internalType": "bool",
          "name": "isDeleted",
          "type": "bool"
        }
      ],
      "name": "DeleteTask",
      "type": "event"
    },
    {
      "anonymous": false,
      "inputs": [
        {
          "indexed": false,
          "internalType": "uint256",
          "name": "taskId",
          "type": "uint256"
        }
      ],
      "name": "UpdateTaskStatus",
      "type": "event"
    },
    {
      "inputs": [
        {
          "internalType": "string",
          "name": "taskText",
          "type": "string"
        },
        {
          "internalType": "bool",
          "name": "isDeleted",
          "type": "bool"
        },
        {
          "internalType": "bool",
          "name": "isCompleted",
          "type": "bool"
        }
      ],
      "name": "addTask",
      "outputs": [],
      "stateMutability": "nonpayable",
      "type": "function"
    },
    {
      "inputs": [],
      "name": "getMyTasks",
      "outputs": [
        {
          "components": [
            {
              "internalType": "uint256",
              "name": "id",
              "type": "uint256"
            },
            {
              "internalType": "address",
              "name": "username",
              "type": "address"
            },
            {
              "internalType": "string",
              "name": "taskText",
              "type": "string"
            },
            {
              "internalType": "bool",
              "name": "isDeleted",
              "type": "bool"
            },
            {
              "internalType": "bool",
              "name": "isCompleted",
              "type": "bool"
            }
          ],
          "internalType": "struct TaskContract.Task[]",
          "name": "",
          "type": "tuple[]"
        }
      ],
      "stateMutability": "view",
      "type": "function",
      "constant": true
    },
    {
      "inputs": [
        {
          "internalType": "uint256",
          "name": "taskId",
          "type": "uint256"
        },
        {
          "internalType": "bool",
          "name": "isDeleted",
          "type": "bool"
        }
      ],
      "name": "deleteTask",
      "outputs": [],
      "stateMutability": "nonpayable",
      "type": "function"
    },
    {
      "inputs": [
        {
          "internalType": "uint256",
          "name": "taskId",
          "type": "uint256"
        }
      ],
      "name": "updateTaskStatus",
      "outputs": [],
      "stateMutability": "nonpayable",
      "type": "function"
    }
  ],
  "bytecode": "0x608060405234801561001057600080fd5b5061109e806100206000396000f3fe608060405234801561001057600080fd5b506004361061004c5760003560e01c80636e13f818146100515780638a7abe761461006f578063aaba29071461008b578063c02bc162146100a7575b600080fd5b6100596100c3565b6040516100669190610d55565b60405180910390f35b61008960048036038101906100849190610ace565b610534565b005b6100a560048036038101906100a09190610b5e565b6106ea565b005b6100c160048036038101906100bc9190610b35565b6107f2565b005b60606000808054905067ffffffffffffffff81111561010b577f4e487b7100000000000000000000000000000000000000000000000000000000600052604160045260246000fd5b60405190808252806020026020018201604052801561014457816020015b610131610950565b8152602001906001900390816101295790505b5090506000805b600080549050811015610408573373ffffffffffffffffffffffffffffffffffffffff166001600083815260200190815260200160002060009054906101000a900473ffffffffffffffffffffffffffffffffffffffff1673ffffffffffffffffffffffffffffffffffffffff16148015610222575060001515600082815481106101ff577f4e487b7100000000000000000000000000000000000000000000000000000000600052603260045260246000fd5b906000526020600020906004020160030160009054906101000a900460ff161515145b156103f55760008181548110610261577f4e487b7100000000000000000000000000000000000000000000000000000000600052603260045260246000fd5b90600052602060002090600402016040518060a0016040529081600082015481526020016001820160009054906101000a900473ffffffffffffffffffffffffffffffffffffffff1673ffffffffffffffffffffffffffffffffffffffff1673ffffffffffffffffffffffffffffffffffffffff1681526020016002820180546102ea90610ef0565b80601f016020809104026020016040519081016040528092919081815260200182805461031690610ef0565b80156103635780601f1061033857610100808354040283529160200191610363565b820191906000526020600020905b81548152906001019060200180831161034657829003601f168201915b505050505081526020016003820160009054906101000a900460ff161515151581526020016003820160019054906101000a900460ff1615151515815250508383815181106103db577f4e487b7100000000000000000000000000000000000000000000000000000000600052603260045260246000fd5b602002602001018190525081806103f190610f53565b9250505b808061040090610f53565b91505061014b565b5060008167ffffffffffffffff81111561044b577f4e487b7100000000000000000000000000000000000000000000000000000000600052604160045260246000fd5b60405190808252806020026020018201604052801561048457816020015b610471610950565b8152602001906001900390816104695790505b50905060005b8281101561052a578381815181106104cb577f4e487b7100000000000000000000000000000000000000000000000000000000600052603260045260246000fd5b602002602001015182828151811061050c577f4e487b7100000000000000000000000000000000000000000000000000000000600052603260045260246000fd5b6020026020010181905250808061052290610f53565b91505061048a565b5080935050505090565b60008080549050905060006040518060a001604052808381526020013373ffffffffffffffffffffffffffffffffffffffff168152602001868152602001851515815260200184151581525090806001815401808255809150506001900390600052602060002090600402016000909190919091506000820151816000015560208201518160010160006101000a81548173ffffffffffffffffffffffffffffffffffffffff021916908373ffffffffffffffffffffffffffffffffffffffff1602179055506040820151816002019080519060200190610616929190610999565b5060608201518160030160006101000a81548160ff02191690831515021790555060808201518160030160016101000a81548160ff0219169083151502179055505050336001600083815260200190815260200160002060006101000a81548173ffffffffffffffffffffffffffffffffffffffff021916908373ffffffffffffffffffffffffffffffffffffffff1602179055507f1f54e1ba1832d428fbd7e7792beaf62b1fc5a382c207ffd614209c1413e94fda33826040516106dc929190610d2c565b60405180910390a150505050565b3373ffffffffffffffffffffffffffffffffffffffff166001600084815260200190815260200160002060009054906101000a900473ffffffffffffffffffffffffffffffffffffffff1673ffffffffffffffffffffffffffffffffffffffff1614156107ee57806000838154811061078c577f4e487b7100000000000000000000000000000000000000000000000000000000600052603260045260246000fd5b906000526020600020906004020160030160006101000a81548160ff0219169083151502179055507ff88a35c3d2016c409a46570b994a17b408dbc83c14a03f521512d50b85386d0682826040516107e5929190610d92565b60405180910390a15b5050565b3373ffffffffffffffffffffffffffffffffffffffff166001600083815260200190815260200160002060009054906101000a900473ffffffffffffffffffffffffffffffffffffffff1673ffffffffffffffffffffffffffffffffffffffff16141561094d5760008181548110610893577f4e487b7100000000000000000000000000000000000000000000000000000000600052603260045260246000fd5b906000526020600020906004020160030160019054906101000a900460ff1615600082815481106108ed577f4e487b7100000000000000000000000000000000000000000000000000000000600052603260045260246000fd5b906000526020600020906004020160030160016101000a81548160ff0219169083151502179055507f529266eb52ff98932978c107aa1ccfeecbd76f2ddcb8d542635ae25d1dd612e3816040516109449190610d77565b60405180910390a15b50565b6040518060a0016040528060008152602001600073ffffffffffffffffffffffffffffffffffffffff168152602001606081526020016000151581526020016000151581525090565b8280546109a590610ef0565b90600052602060002090601f0160209004810192826109c75760008555610a0e565b82601f106109e057805160ff1916838001178555610a0e565b82800160010185558215610a0e579182015b82811115610a0d5782518255916020019190600101906109f2565b5b509050610a1b9190610a1f565b5090565b5b80821115610a38576000816000905550600101610a20565b5090565b6000610a4f610a4a84610de0565b610dbb565b905082815260208101848484011115610a6757600080fd5b610a72848285610eae565b509392505050565b600081359050610a898161103a565b92915050565b600082601f830112610aa057600080fd5b8135610ab0848260208601610a3c565b91505092915050565b600081359050610ac881611051565b92915050565b600080600060608486031215610ae357600080fd5b600084013567ffffffffffffffff811115610afd57600080fd5b610b0986828701610a8f565b9350506020610b1a86828701610a7a565b9250506040610b2b86828701610a7a565b9150509250925092565b600060208284031215610b4757600080fd5b6000610b5584828501610ab9565b91505092915050565b60008060408385031215610b7157600080fd5b6000610b7f85828601610ab9565b9250506020610b9085828601610a7a565b9150509250929050565b6000610ba68383610c98565b905092915050565b610bb781610e66565b82525050565b610bc681610e66565b82525050565b6000610bd782610e21565b610be18185610e44565b935083602082028501610bf385610e11565b8060005b85811015610c2f5784840389528151610c108582610b9a565b9450610c1b83610e37565b925060208a01995050600181019050610bf7565b50829750879550505050505092915050565b610c4a81610e78565b82525050565b610c5981610e78565b82525050565b6000610c6a82610e2c565b610c748185610e55565b9350610c84818560208601610ebd565b610c8d81611029565b840191505092915050565b600060a083016000830151610cb06000860182610d0e565b506020830151610cc36020860182610bae565b5060408301518482036040860152610cdb8282610c5f565b9150506060830151610cf06060860182610c41565b506080830151610d036080860182610c41565b508091505092915050565b610d1781610ea4565b82525050565b610d2681610ea4565b82525050565b6000604082019050610d416000830185610bbd565b610d4e6020830184610d1d565b9392505050565b60006020820190508181036000830152610d6f8184610bcc565b905092915050565b6000602082019050610d8c6000830184610d1d565b92915050565b6000604082019050610da76000830185610d1d565b610db46020830184610c50565b9392505050565b6000610dc5610dd6565b9050610dd18282610f22565b919050565b6000604051905090565b600067ffffffffffffffff821115610dfb57610dfa610ffa565b5b610e0482611029565b9050602081019050919050565b6000819050602082019050919050565b600081519050919050565b600081519050919050565b6000602082019050919050565b600082825260208201905092915050565b600082825260208201905092915050565b6000610e7182610e84565b9050919050565b60008115159050919050565b600073ffffffffffffffffffffffffffffffffffffffff82169050919050565b6000819050919050565b82818337600083830152505050565b60005b83811015610edb578082015181840152602081019050610ec0565b83811115610eea576000848401525b50505050565b60006002820490506001821680610f0857607f821691505b60208210811415610f1c57610f1b610fcb565b5b50919050565b610f2b82611029565b810181811067ffffffffffffffff82111715610f4a57610f49610ffa565b5b80604052505050565b6000610f5e82610ea4565b91507fffffffffffffffffffffffffffffffffffffffffffffffffffffffffffffffff821415610f9157610f90610f9c565b5b600182019050919050565b7f4e487b7100000000000000000000000000000000000000000000000000000000600052601160045260246000fd5b7f4e487b7100000000000000000000000000000000000000000000000000000000600052602260045260246000fd5b7f4e487b7100000000000000000000000000000000000000000000000000000000600052604160045260246000fd5b6000601f19601f8301169050919050565b61104381610e78565b811461104e57600080fd5b50565b61105a81610ea4565b811461106557600080fd5b5056fea26469706673582212204a718c7245cd86ef1ddeb3886ded8b0257a36d3aa71eebcc7c2e34f2e950578c64736f6c63430008040033",
  "immutableReferences": {},
  "source": "//SPDX-License-Identifier: MIT\npragma solidity ^0.8.4;\n\ncontract TaskContract {\n    event AddTask(address recipient, uint256 taskId);\n    event DeleteTask(uint256 taskId, bool isDeleted);\n    event UpdateTaskStatus(uint256 taskId);\n\n    struct Task {\n        uint256 id;\n        address username;\n        string taskText;\n        bool isDeleted;\n        bool isCompleted;\n    }\n\n    Task[] private tasks;\n\n    mapping(uint256 => address) private taskToOwner;\n\n    function addTask(\n        string memory taskText,\n        bool isDeleted,\n        bool isCompleted\n    ) external {\n        uint256 taskId = tasks.length;\n        tasks.push(Task(taskId, msg.sender, taskText, isDeleted, isCompleted));\n        taskToOwner[taskId] = msg.sender;\n        emit AddTask(msg.sender, taskId);\n    }\n\n    // Method to get only your Tasks\n    function getMyTasks() external view returns (Task[] memory) {\n        Task[] memory temporary = new Task[](tasks.length);\n        uint256 counter = 0;\n\n        for (uint256 i = 0; i < tasks.length; i++) {\n            if (taskToOwner[i] == msg.sender && tasks[i].isDeleted == false) {\n                temporary[counter] = tasks[i];\n                counter++;\n            }\n        }\n\n        Task[] memory result = new Task[](counter);\n        for (uint256 i = 0; i < counter; i++) {\n            result[i] = temporary[i];\n        }\n        return result;\n    }\n\n    // Method to Delete a Task\n    function deleteTask(uint256 taskId, bool isDeleted) external {\n        if (taskToOwner[taskId] == msg.sender) {\n            tasks[taskId].isDeleted = isDeleted;\n            emit DeleteTask(taskId, isDeleted);\n        }\n    }\n\n    function updateTaskStatus(uint256 taskId) external {\n        if (taskToOwner[taskId] == msg.sender) {\n            tasks[taskId].isCompleted = !tasks[taskId].isCompleted;\n            emit UpdateTaskStatus(taskId);\n        }\n    }\n}\n",
  "sourcePath": "C:\\Users\\cocsa\\OneDrive\\Desktop\\Dev Folder\\BlockChain\\todo_app_blockchain\\contracts\\TaskContract.sol",
  "compiler": {
    "name": "solc",
    "version": "0.8.4+commit.c7e474f2.Emscripten.clang"
  },
  "schemaVersion": "3.4.9",
  "updatedAt": "2022-09-01T08:07:36.531Z",
  "networkType": "ethereum",
  "devdoc": {
    "kind": "dev",
    "methods": {},
    "version": 1
  },
  "userdoc": {
    "kind": "user",
    "methods": {},
    "version": 1
  }
}